{
  "contractName": "Certifier",
  "abi": [
    {
      "constant": true,
      "inputs": [
        {
          "name": "",
          "type": "bytes32"
        }
      ],
      "name": "sessions",
      "outputs": [
        {
          "name": "topic",
          "type": "string"
        },
        {
          "name": "timestamp",
          "type": "uint32"
        }
      ],
      "payable": false,
      "stateMutability": "view",
      "type": "function"
    },
    {
      "constant": true,
      "inputs": [],
      "name": "owner",
      "outputs": [
        {
          "name": "",
          "type": "address"
        }
      ],
      "payable": false,
      "stateMutability": "view",
      "type": "function"
    },
    {
      "constant": true,
      "inputs": [
        {
          "name": "",
          "type": "bytes32"
        }
      ],
      "name": "courses",
      "outputs": [
        {
          "name": "name",
          "type": "string"
        },
        {
          "name": "cost",
          "type": "uint256"
        },
        {
          "name": "duration",
          "type": "uint256"
        },
        {
          "name": "threshold",
          "type": "uint256"
        }
      ],
      "payable": false,
      "stateMutability": "view",
      "type": "function"
    },
    {
      "inputs": [],
      "payable": false,
      "stateMutability": "nonpayable",
      "type": "constructor"
    },
    {
      "constant": false,
      "inputs": [
        {
          "name": "_code",
          "type": "bytes32"
        },
        {
          "name": "_name",
          "type": "string"
        },
        {
          "name": "_cost",
          "type": "uint256"
        },
        {
          "name": "_duration",
          "type": "uint256"
        },
        {
          "name": "_threshold",
          "type": "uint256"
        },
        {
          "name": "_codes",
          "type": "bytes32[]"
        },
        {
          "name": "_sessions_codes",
          "type": "bytes32[]"
        }
      ],
      "name": "addCourse",
      "outputs": [],
      "payable": false,
      "stateMutability": "nonpayable",
      "type": "function"
    },
    {
      "constant": false,
      "inputs": [
        {
          "name": "_session_code",
          "type": "bytes32"
        },
        {
          "name": "_topic",
          "type": "string"
        },
        {
          "name": "_timestamp",
          "type": "uint32"
        }
      ],
      "name": "addSession",
      "outputs": [],
      "payable": false,
      "stateMutability": "nonpayable",
      "type": "function"
    },
    {
      "constant": true,
      "inputs": [
        {
          "name": "_code",
          "type": "bytes32"
        }
      ],
      "name": "getCourse",
      "outputs": [
        {
          "name": "",
          "type": "string"
        },
        {
          "name": "",
          "type": "uint256"
        },
        {
          "name": "",
          "type": "uint256"
        },
        {
          "name": "",
          "type": "uint256"
        },
        {
          "name": "",
          "type": "bytes32[]"
        },
        {
          "name": "",
          "type": "bytes32[]"
        }
      ],
      "payable": false,
      "stateMutability": "view",
      "type": "function"
    },
    {
      "constant": true,
      "inputs": [
        {
          "name": "_session_code",
          "type": "bytes32"
        }
      ],
      "name": "getSession",
      "outputs": [
        {
          "name": "",
          "type": "string"
        },
        {
          "name": "",
          "type": "uint32"
        }
      ],
      "payable": false,
      "stateMutability": "view",
      "type": "function"
    },
    {
      "constant": false,
      "inputs": [
        {
          "name": "_code",
          "type": "bytes32"
        },
        {
          "name": "_fname",
          "type": "string"
        },
        {
          "name": "_lname",
          "type": "string"
        },
        {
          "name": "_age",
          "type": "uint256"
        },
        {
          "name": "_email",
          "type": "string"
        }
      ],
      "name": "subscribe",
      "outputs": [],
      "payable": true,
      "stateMutability": "payable",
      "type": "function"
    },
    {
      "constant": false,
      "inputs": [
        {
          "name": "_course_code",
          "type": "bytes32"
        },
        {
          "name": "_session_code",
          "type": "bytes32"
        }
      ],
      "name": "addSessionToCourse",
      "outputs": [],
      "payable": false,
      "stateMutability": "nonpayable",
      "type": "function"
    },
    {
      "constant": true,
      "inputs": [],
      "name": "isOwner",
      "outputs": [
        {
          "name": "",
          "type": "bool"
        }
      ],
      "payable": false,
      "stateMutability": "view",
      "type": "function"
    }
  ],
  "bytecode": "0x608060405234801561001057600080fd5b50336000806101000a81548173ffffffffffffffffffffffffffffffffffffffff021916908373ffffffffffffffffffffffffffffffffffffffff1602179055506112c5806100606000396000f3006080604052600436106100a4576000357c0100000000000000000000000000000000000000000000000000000000900463ffffffff16806339b240bd146100a95780637b75db29146101665780637dbd2832146101ed5780638b41e7ee146102aa5780638da5cb5b146102e95780638f32d59b1461034057806392f6d0dc1461036f578063987b57b91461048a578063bd11bc51146105d9578063c4b88751146106d9575b600080fd5b3480156100b557600080fd5b506100d86004803603810190808035600019169060200190929190505050610798565b60405180806020018363ffffffff1663ffffffff168152602001828103825284818151815260200191508051906020019080838360005b8381101561012a57808201518184015260208101905061010f565b50505050905090810190601f1680156101575780820380516001836020036101000a031916815260200191505b50935050505060405180910390f35b34801561017257600080fd5b506101eb6004803603810190808035600019169060200190929190803590602001908201803590602001908080601f0160208091040260200160405190810160405280939291908181526020018383808284378201915050505050509192919290803563ffffffff1690602001909291905050506108d4565b005b3480156101f957600080fd5b5061021c60048036038101908080356000191690602001909291905050506109b1565b60405180806020018363ffffffff1663ffffffff168152602001828103825284818151815260200191508051906020019080838360005b8381101561026e578082015181840152602081019050610253565b50505050905090810190601f16801561029b5780820380516001836020036101000a031916815260200191505b50935050505060405180910390f35b3480156102b657600080fd5b506102e760048036038101908080356000191690602001909291908035600019169060200190929190505050610a7d565b005b3480156102f557600080fd5b506102fe610b30565b604051808273ffffffffffffffffffffffffffffffffffffffff1673ffffffffffffffffffffffffffffffffffffffff16815260200191505060405180910390f35b34801561034c57600080fd5b50610355610b55565b604051808215151515815260200191505060405180910390f35b34801561037b57600080fd5b506104886004803603810190808035600019169060200190929190803590602001908201803590602001908080601f01602080910402602001604051908101604052809392919081815260200183838082843782019150505050505091929192908035906020019092919080359060200190929190803590602001909291908035906020019082018035906020019080806020026020016040519081016040528093929190818152602001838360200280828437820191505050505050919291929080359060200190820180359060200190808060200260200160405190810160405280939291908181526020018383602002808284378201915050505050509192919290505050610bac565b005b34801561049657600080fd5b506104b96004803603810190808035600019169060200190929190505050610cd1565b6040518080602001878152602001868152602001858152602001806020018060200184810384528a818151815260200191508051906020019080838360005b838110156105135780820151818401526020810190506104f8565b50505050905090810190601f1680156105405780820380516001836020036101000a031916815260200191505b50848103835286818151815260200191508051906020019060200280838360005b8381101561057c578082015181840152602081019050610561565b50505050905001848103825285818151815260200191508051906020019060200280838360005b838110156105be5780820151818401526020810190506105a3565b50505050905001995050505050505050505060405180910390f35b6106d76004803603810190808035600019169060200190929190803590602001908201803590602001908080601f0160208091040260200160405190810160405280939291908181526020018383808284378201915050505050509192919290803590602001908201803590602001908080601f016020809104026020016040519081016040528093929190818152602001838380828437820191505050505050919291929080359060200190929190803590602001908201803590602001908080601f0160208091040260200160405190810160405280939291908181526020018383808284378201915050505050509192919290505050610ece565b005b3480156106e557600080fd5b5061070860048036038101908080356000191690602001909291905050506110b4565b6040518080602001858152602001848152602001838152602001828103825286818151815260200191508051906020019080838360005b8381101561075a57808201518184015260208101905061073f565b50505050905090810190601f1680156107875780820380516001836020036101000a031916815260200191505b509550505050505060405180910390f35b60606000806000809054906101000a900473ffffffffffffffffffffffffffffffffffffffff1673ffffffffffffffffffffffffffffffffffffffff163373ffffffffffffffffffffffffffffffffffffffff161415156107f857600080fd5b6002600085600019166000191681526020019081526020016000209050806000018160010160009054906101000a900463ffffffff16818054600181600116156101000203166002900480601f0160208091040260200160405190810160405280929190818152602001828054600181600116156101000203166002900480156108c35780601f10610898576101008083540402835291602001916108c3565b820191906000526020600020905b8154815290600101906020018083116108a657829003601f168201915b505050505091509250925050915091565b6000809054906101000a900473ffffffffffffffffffffffffffffffffffffffff1673ffffffffffffffffffffffffffffffffffffffff163373ffffffffffffffffffffffffffffffffffffffff1614151561092f57600080fd5b60408051908101604052808381526020018263ffffffff16815250600260008560001916600019168152602001908152602001600020600082015181600001908051906020019061098192919061117c565b5060208201518160010160006101000a81548163ffffffff021916908363ffffffff160217905550905050505050565b6002602052806000526040600020600091509050806000018054600181600116156101000203166002900480601f016020809104026020016040519081016040528092919081815260200182805460018160011615610100020316600290048015610a5d5780601f10610a3257610100808354040283529160200191610a5d565b820191906000526020600020905b815481529060010190602001808311610a4057829003601f168201915b5050505050908060010160009054906101000a900463ffffffff16905082565b60008060009054906101000a900473ffffffffffffffffffffffffffffffffffffffff1673ffffffffffffffffffffffffffffffffffffffff163373ffffffffffffffffffffffffffffffffffffffff16141515610ada57600080fd5b600160008460001916600019168152602001908152602001600020905080600501829080600181540180825580915050906001820390600052602060002001600090919290919091509060001916905550505050565b6000809054906101000a900473ffffffffffffffffffffffffffffffffffffffff1681565b60008060009054906101000a900473ffffffffffffffffffffffffffffffffffffffff1673ffffffffffffffffffffffffffffffffffffffff163373ffffffffffffffffffffffffffffffffffffffff1614905090565b6000809054906101000a900473ffffffffffffffffffffffffffffffffffffffff1673ffffffffffffffffffffffffffffffffffffffff163373ffffffffffffffffffffffffffffffffffffffff16141515610c0757600080fd5b60c060405190810160405280878152602001868152602001858152602001848152602001838152602001828152506001600089600019166000191681526020019081526020016000206000820151816000019080519060200190610c6c92919061117c565b506020820151816001015560408201518160020155606082015181600301556080820151816004019080519060200190610ca79291906111fc565b5060a0820151816005019080519060200190610cc49291906111fc565b5090505050505050505050565b6060600080600060608060008060009054906101000a900473ffffffffffffffffffffffffffffffffffffffff1673ffffffffffffffffffffffffffffffffffffffff163373ffffffffffffffffffffffffffffffffffffffff16141515610d3857600080fd5b6001600089600019166000191681526020019081526020016000209050806000018160010154826002015483600301548460040185600501858054600181600116156101000203166002900480601f016020809104026020016040519081016040528092919081815260200182805460018160011615610100020316600290048015610e055780601f10610dda57610100808354040283529160200191610e05565b820191906000526020600020905b815481529060010190602001808311610de857829003601f168201915b5050505050955081805480602002602001604051908101604052809291908181526020018280548015610e5b57602002820191906000526020600020905b81546000191681526020019060010190808311610e43575b5050505050915080805480602002602001604051908101604052809291908181526020018280548015610eb157602002820191906000526020600020905b81546000191681526020019060010190808311610e99575b505050505090509650965096509650965096505091939550919395565b60006729a2241af62c000034141515610f75576040517f08c379a00000000000000000000000000000000000000000000000000000000081526004018080602001828103825260218152602001807f596f7520686176656e27742073656e642065786163746c79203320657474686581526020017f720000000000000000000000000000000000000000000000000000000000000081525060400191505060405180910390fd5b600160008760001916600019168152602001908152602001600020905060a0604051908101604052808681526020018581526020018481526020018381526020016000604051908082528060200260200182016040528015610fe65781602001602082028038833980820191505090505b508152508160060160003373ffffffffffffffffffffffffffffffffffffffff1673ffffffffffffffffffffffffffffffffffffffff168152602001908152602001600020600082015181600001908051906020019061104792919061117c565b50602082015181600101908051906020019061106492919061117c565b5060408201518160020155606082015181600301908051906020019061108b92919061117c565b5060808201518160040190805190602001906110a89291906111fc565b50905050505050505050565b6001602052806000526040600020600091509050806000018054600181600116156101000203166002900480601f0160208091040260200160405190810160405280929190818152602001828054600181600116156101000203166002900480156111605780601f1061113557610100808354040283529160200191611160565b820191906000526020600020905b81548152906001019060200180831161114357829003601f168201915b5050505050908060010154908060020154908060030154905084565b828054600181600116156101000203166002900490600052602060002090601f016020900481019282601f106111bd57805160ff19168380011785556111eb565b828001600101855582156111eb579182015b828111156111ea5782518255916020019190600101906111cf565b5b5090506111f8919061124f565b5090565b82805482825590600052602060002090810192821561123e579160200282015b8281111561123d57825182906000191690559160200191906001019061121c565b5b50905061124b9190611274565b5090565b61127191905b8082111561126d576000816000905550600101611255565b5090565b90565b61129691905b8082111561129257600081600090555060010161127a565b5090565b905600a165627a7a723058205c47ddf1336dff67729e30509f21bd25aff1745e85c9d7f60cad4b8197f4103d0029",
  "source": "pragma solidity ^0.4.23;\n\ncontract Certifier {\n\n    address public owner;\n    mapping(bytes32 => Course) public courses;\n    mapping(bytes32 => Session) public sessions;\n\n    struct Course {\n        string name;\n        uint cost;\n        uint duration;\n        uint threshold;\n        bytes32[] codes;\n        bytes32[] sessions;\n        mapping(address => Student) students;\n    }\n\n    struct Student {\n        string fname;\n        string lname;\n        uint age;\n        string email;\n        bytes32[] codes;\n    }\n\n    struct Session {\n        string topic;\n        uint32 timestamp;\n    }\n    //now returns something like : 1478431966 (which you could convert in a readble form in http://www.unixtimestamp.com/)\n    //https://ethereum.stackexchange.com/questions/9858/solidity-is-there-a-way-to-get-the-timestamp-of-a-transaction-that-executed\n\n    //TODO attendance how we are going to that shit?\n    struct Attendance {\n        mapping(address => Student) students;\n\n    }\n\n    function addCourse( bytes32 _code, string _name, uint _cost, uint _duration, uint _threshold, bytes32[] _codes, bytes32[] _sessions_codes) public restricted {\n        courses[_code] = Course({\n            name: _name,\n            cost: _cost,\n            duration: _duration,\n            threshold: _threshold,\n            codes: _codes,\n            sessions: _sessions_codes\n        });\n    }\n\n    function addSession( bytes32 _session_code, string _topic, uint32 _timestamp) public restricted {\n        sessions[_session_code] = Session({\n            topic: _topic,\n            timestamp: _timestamp\n        });\n    }\n\n    function getCourse(bytes32 _code) public restricted view returns (string, uint, uint, uint, bytes32[], bytes32[]){\n        Course storage course = courses[_code];\n        return (course.name, course.cost, course.duration, course.threshold, course.codes, course.sessions);\n    }\n\n    function getSession(bytes32 _session_code) public restricted view returns (string, uint32){\n        Session storage session = sessions[_session_code];\n        return (session.topic, session.timestamp);\n    }\n\n    function subscribe(\n        bytes32 _code,\n        string _fname,\n        string _lname,\n        uint _age,\n        string _email)\n            public payable{\n        require(msg.value == 3 ether, \"You haven't send exactly 3 etther\");\n        Course storage course = courses[_code];\n        course.students[msg.sender] = Student({\n            fname: _fname,\n            lname: _lname,\n            age: _age,\n            email: _email,\n            codes: new bytes32[](0)\n        });\n    }\n\n    function addSessionToCourse( bytes32 _course_code, bytes32 _session_code) public restricted {\n        Course storage course = courses[_course_code];\n        course.sessions.push(_session_code);\n    }\n\n    //TODO end this shit\n//    function getCourseSessionsCount(bytes32 _course_code) public restricted view returns (uint){\n//        Course storage course = courses[_course_code];\n//        return course.sessions.length.toFixed();\n//    }\n\n    //view -> solo para ver la blookchain y no modificarla\n    function isOwner() public view returns (bool) {\n        return msg.sender == owner;\n    }\n\n    constructor() public {\n        owner = msg.sender;\n    }\n\n    modifier restricted() {\n        require (msg.sender == owner);\n        _;\n    }\n\n}\n\n",
  "sourcePath": "/home/annipi/Documents/Blockchain/Solidity/certifier/contracts/Certifier.sol",
  "compiler": {
    "name": "solc",
    "version": "0.4.24+commit.e67f0147.Emscripten.clang"
  },
  "schemaVersion": "2.0.1",
  "updatedAt": "2018-10-13T14:17:16.003Z"
}