{
  "contractName": "Certifier",
  "abi": [
    {
      "constant": true,
      "inputs": [
        {
          "name": "",
          "type": "bytes32"
        }
      ],
      "name": "sessions",
      "outputs": [
        {
          "name": "topic",
          "type": "string"
        },
        {
          "name": "timestamp",
          "type": "uint32"
        }
      ],
      "payable": false,
      "stateMutability": "view",
      "type": "function"
    },
    {
      "constant": true,
      "inputs": [],
      "name": "owner",
      "outputs": [
        {
          "name": "",
          "type": "address"
        }
      ],
      "payable": false,
      "stateMutability": "view",
      "type": "function"
    },
    {
      "constant": true,
      "inputs": [
        {
          "name": "",
          "type": "bytes32"
        }
      ],
      "name": "courses",
      "outputs": [
        {
          "name": "name",
          "type": "string"
        },
        {
          "name": "cost",
          "type": "uint256"
        },
        {
          "name": "duration",
          "type": "uint256"
        },
        {
          "name": "threshold",
          "type": "uint256"
        }
      ],
      "payable": false,
      "stateMutability": "view",
      "type": "function"
    },
    {
      "inputs": [],
      "payable": false,
      "stateMutability": "nonpayable",
      "type": "constructor"
    },
    {
      "constant": false,
      "inputs": [
        {
          "name": "_code",
          "type": "bytes32"
        },
        {
          "name": "_name",
          "type": "string"
        },
        {
          "name": "_cost",
          "type": "uint256"
        },
        {
          "name": "_duration",
          "type": "uint256"
        },
        {
          "name": "_threshold",
          "type": "uint256"
        },
        {
          "name": "_codes",
          "type": "bytes32[]"
        }
      ],
      "name": "addCourse",
      "outputs": [],
      "payable": false,
      "stateMutability": "nonpayable",
      "type": "function"
    },
    {
      "constant": false,
      "inputs": [
        {
          "name": "_session_code",
          "type": "bytes32"
        },
        {
          "name": "_topic",
          "type": "string"
        },
        {
          "name": "_timestamp",
          "type": "uint32"
        }
      ],
      "name": "addSession",
      "outputs": [],
      "payable": false,
      "stateMutability": "nonpayable",
      "type": "function"
    },
    {
      "constant": true,
      "inputs": [
        {
          "name": "_code",
          "type": "bytes32"
        }
      ],
      "name": "getCourse",
      "outputs": [
        {
          "name": "",
          "type": "string"
        },
        {
          "name": "",
          "type": "uint256"
        },
        {
          "name": "",
          "type": "uint256"
        },
        {
          "name": "",
          "type": "uint256"
        },
        {
          "name": "",
          "type": "bytes32[]"
        }
      ],
      "payable": false,
      "stateMutability": "view",
      "type": "function"
    },
    {
      "constant": true,
      "inputs": [
        {
          "name": "_session_code",
          "type": "bytes32"
        }
      ],
      "name": "getSession",
      "outputs": [
        {
          "name": "",
          "type": "string"
        },
        {
          "name": "",
          "type": "uint32"
        }
      ],
      "payable": false,
      "stateMutability": "view",
      "type": "function"
    },
    {
      "constant": false,
      "inputs": [
        {
          "name": "_code",
          "type": "bytes32"
        },
        {
          "name": "_fname",
          "type": "string"
        },
        {
          "name": "_lname",
          "type": "string"
        },
        {
          "name": "_age",
          "type": "uint256"
        },
        {
          "name": "_email",
          "type": "string"
        }
      ],
      "name": "subscribe",
      "outputs": [],
      "payable": true,
      "stateMutability": "payable",
      "type": "function"
    }
  ],
  "bytecode": "0x608060405234801561001057600080fd5b50336000806101000a81548173ffffffffffffffffffffffffffffffffffffffff021916908373ffffffffffffffffffffffffffffffffffffffff16021790555061102b806100606000396000f30060806040526004361061008e576000357c0100000000000000000000000000000000000000000000000000000000900463ffffffff16806339b240bd146100935780637b75db29146101505780637dbd2832146101d75780638da5cb5b14610294578063987b57b9146102eb578063bd11bc51146103f2578063c4b88751146104f2578063fdf8aad3146105b1575b600080fd5b34801561009f57600080fd5b506100c26004803603810190808035600019169060200190929190505050610689565b60405180806020018363ffffffff1663ffffffff168152602001828103825284818151815260200191508051906020019080838360005b838110156101145780820151818401526020810190506100f9565b50505050905090810190601f1680156101415780820380516001836020036101000a031916815260200191505b50935050505060405180910390f35b34801561015c57600080fd5b506101d56004803603810190808035600019169060200190929190803590602001908201803590602001908080601f0160208091040260200160405190810160405280939291908181526020018383808284378201915050505050509192919290803563ffffffff1690602001909291905050506107c5565b005b3480156101e357600080fd5b5061020660048036038101908080356000191690602001909291905050506108a2565b60405180806020018363ffffffff1663ffffffff168152602001828103825284818151815260200191508051906020019080838360005b8381101561025857808201518184015260208101905061023d565b50505050905090810190601f1680156102855780820380516001836020036101000a031916815260200191505b50935050505060405180910390f35b3480156102a057600080fd5b506102a961096e565b604051808273ffffffffffffffffffffffffffffffffffffffff1673ffffffffffffffffffffffffffffffffffffffff16815260200191505060405180910390f35b3480156102f757600080fd5b5061031a6004803603810190808035600019169060200190929190505050610993565b604051808060200186815260200185815260200184815260200180602001838103835288818151815260200191508051906020019080838360005b83811015610370578082015181840152602081019050610355565b50505050905090810190601f16801561039d5780820380516001836020036101000a031916815260200191505b50838103825284818151815260200191508051906020019060200280838360005b838110156103d95780820151818401526020810190506103be565b5050505090500197505050505050505060405180910390f35b6104f06004803603810190808035600019169060200190929190803590602001908201803590602001908080601f0160208091040260200160405190810160405280939291908181526020018383808284378201915050505050509192919290803590602001908201803590602001908080601f016020809104026020016040519081016040528093929190818152602001838380828437820191505050505050919291929080359060200190929190803590602001908201803590602001908080601f0160208091040260200160405190810160405280939291908181526020018383808284378201915050505050509192919290505050610b33565b005b3480156104fe57600080fd5b506105216004803603810190808035600019169060200190929190505050610d19565b6040518080602001858152602001848152602001838152602001828103825286818151815260200191508051906020019080838360005b83811015610573578082015181840152602081019050610558565b50505050905090810190601f1680156105a05780820380516001836020036101000a031916815260200191505b509550505050505060405180910390f35b3480156105bd57600080fd5b506106876004803603810190808035600019169060200190929190803590602001908201803590602001908080601f016020809104026020016040519081016040528093929190818152602001838380828437820191505050505050919291929080359060200190929190803590602001909291908035906020019092919080359060200190820180359060200190808060200260200160405190810160405280939291908181526020018383602002808284378201915050505050509192919290505050610de1565b005b60606000806000809054906101000a900473ffffffffffffffffffffffffffffffffffffffff1673ffffffffffffffffffffffffffffffffffffffff163373ffffffffffffffffffffffffffffffffffffffff161415156106e957600080fd5b6002600085600019166000191681526020019081526020016000209050806000018160010160009054906101000a900463ffffffff16818054600181600116156101000203166002900480601f0160208091040260200160405190810160405280929190818152602001828054600181600116156101000203166002900480156107b45780601f10610789576101008083540402835291602001916107b4565b820191906000526020600020905b81548152906001019060200180831161079757829003601f168201915b505050505091509250925050915091565b6000809054906101000a900473ffffffffffffffffffffffffffffffffffffffff1673ffffffffffffffffffffffffffffffffffffffff163373ffffffffffffffffffffffffffffffffffffffff1614151561082057600080fd5b60408051908101604052808381526020018263ffffffff168152506002600085600019166000191681526020019081526020016000206000820151816000019080519060200190610872929190610ee2565b5060208201518160010160006101000a81548163ffffffff021916908363ffffffff160217905550905050505050565b6002602052806000526040600020600091509050806000018054600181600116156101000203166002900480601f01602080910402602001604051908101604052809291908181526020018280546001816001161561010002031660029004801561094e5780601f106109235761010080835404028352916020019161094e565b820191906000526020600020905b81548152906001019060200180831161093157829003601f168201915b5050505050908060010160009054906101000a900463ffffffff16905082565b6000809054906101000a900473ffffffffffffffffffffffffffffffffffffffff1681565b60606000806000606060008060009054906101000a900473ffffffffffffffffffffffffffffffffffffffff1673ffffffffffffffffffffffffffffffffffffffff163373ffffffffffffffffffffffffffffffffffffffff161415156109f957600080fd5b60016000886000191660001916815260200190815260200160002090508060000181600101548260020154836003015484600401848054600181600116156101000203166002900480601f016020809104026020016040519081016040528092919081815260200182805460018160011615610100020316600290048015610ac25780601f10610a9757610100808354040283529160200191610ac2565b820191906000526020600020905b815481529060010190602001808311610aa557829003601f168201915b5050505050945080805480602002602001604051908101604052809291908181526020018280548015610b1857602002820191906000526020600020905b81546000191681526020019060010190808311610b00575b50505050509050955095509550955095505091939590929450565b60006729a2241af62c000034141515610bda576040517f08c379a00000000000000000000000000000000000000000000000000000000081526004018080602001828103825260218152602001807f596f7520686176656e27742073656e642065786163746c79203320657474686581526020017f720000000000000000000000000000000000000000000000000000000000000081525060400191505060405180910390fd5b600160008760001916600019168152602001908152602001600020905060a0604051908101604052808681526020018581526020018481526020018381526020016000604051908082528060200260200182016040528015610c4b5781602001602082028038833980820191505090505b508152508160050160003373ffffffffffffffffffffffffffffffffffffffff1673ffffffffffffffffffffffffffffffffffffffff1681526020019081526020016000206000820151816000019080519060200190610cac929190610ee2565b506020820151816001019080519060200190610cc9929190610ee2565b50604082015181600201556060820151816003019080519060200190610cf0929190610ee2565b506080820151816004019080519060200190610d0d929190610f62565b50905050505050505050565b6001602052806000526040600020600091509050806000018054600181600116156101000203166002900480601f016020809104026020016040519081016040528092919081815260200182805460018160011615610100020316600290048015610dc55780601f10610d9a57610100808354040283529160200191610dc5565b820191906000526020600020905b815481529060010190602001808311610da857829003601f168201915b5050505050908060010154908060020154908060030154905084565b6000809054906101000a900473ffffffffffffffffffffffffffffffffffffffff1673ffffffffffffffffffffffffffffffffffffffff163373ffffffffffffffffffffffffffffffffffffffff16141515610e3c57600080fd5b60a060405190810160405280868152602001858152602001848152602001838152602001828152506001600088600019166000191681526020019081526020016000206000820151816000019080519060200190610e9b929190610ee2565b506020820151816001015560408201518160020155606082015181600301556080820151816004019080519060200190610ed6929190610f62565b50905050505050505050565b828054600181600116156101000203166002900490600052602060002090601f016020900481019282601f10610f2357805160ff1916838001178555610f51565b82800160010185558215610f51579182015b82811115610f50578251825591602001919060010190610f35565b5b509050610f5e9190610fb5565b5090565b828054828255906000526020600020908101928215610fa4579160200282015b82811115610fa3578251829060001916905591602001919060010190610f82565b5b509050610fb19190610fda565b5090565b610fd791905b80821115610fd3576000816000905550600101610fbb565b5090565b90565b610ffc91905b80821115610ff8576000816000905550600101610fe0565b5090565b905600a165627a7a7230582096ad47ab4ff342c34c58db574b635d2f21d77534a0f6a8fda36dfcdf2ddd9b930029",
  "source": "pragma solidity ^0.4.23;\n\ncontract Certifier {\n\n    address public owner;\n    mapping(bytes32 => Course) public courses;\n    mapping(bytes32 => Session) public sessions;\n\n    struct Course {\n        string name;\n        uint cost;\n        uint duration;\n        uint threshold;\n        bytes32[] codes;\n        mapping(address => Student) students;\n    }\n\n    struct Student {\n        string fname;\n        string lname;\n        uint age;\n        string email;\n        bytes32[] codes;\n    }\n\n    struct Session {\n        string topic;\n        uint32 timestamp;\n    }\n    //now returns something like : 1478431966 (which you could convert in a readble form in http://www.unixtimestamp.com/)\n    //https://ethereum.stackexchange.com/questions/9858/solidity-is-there-a-way-to-get-the-timestamp-of-a-transaction-that-executed\n\n    struct Attendance {\n        mapping(address => Student) students;\n\n    }\n\n    function addCourse( bytes32 _code, string _name, uint _cost, uint _duration, uint _threshold, bytes32[] _codes) public restricted {\n        courses[_code] = Course({\n            name: _name,\n            cost: _cost,\n            duration: _duration,\n            threshold: _threshold,\n            codes: _codes\n        });\n    }\n\n    function addSession( bytes32 _session_code, string _topic, uint32 _timestamp) public restricted {\n        sessions[_session_code] = Session({\n            topic: _topic,\n            timestamp: _timestamp\n        });\n    }\n\n    function getCourse(bytes32 _code) public restricted view returns (string, uint, uint, uint, bytes32[]){\n        Course storage course = courses[_code];\n        return (course.name, course.cost, course.duration, course.threshold, course.codes);\n    }\n\n    function getSession(bytes32 _session_code) public restricted view returns (string, uint32){\n        Session storage session = sessions[_session_code];\n        return (session.topic, session.timestamp);\n    }\n\n    function subscribe(\n        bytes32 _code,\n        string _fname,\n        string _lname,\n        uint _age,\n        string _email)\n            public payable{\n        require(msg.value == 3 ether, \"You haven't send exactly 3 etther\");\n        Course storage course = courses[_code];\n        course.students[msg.sender] = Student({\n            fname: _fname,\n            lname: _lname,\n            age: _age,\n            email: _email,\n            codes: new bytes32[](0)\n        });\n    }\n\n    constructor() public {\n        owner = msg.sender;\n    }\n\n    modifier restricted() {\n        require (msg.sender == owner);\n        _;\n    }\n\n}\n\n",
  "sourcePath": "/home/annipi/Documents/ViveLab/Blockchain/certifier/contracts/Certifier.sol",
  "compiler": {
    "name": "solc",
    "version": "0.4.24+commit.e67f0147.Emscripten.clang"
  },
  "schemaVersion": "2.0.1",
  "updatedAt": "2018-10-12T04:32:38.996Z"
}