{
  "contractName": "Certifier",
  "abi": [
    {
      "constant": true,
      "inputs": [
        {
          "name": "",
          "type": "bytes32"
        }
      ],
      "name": "sessions",
      "outputs": [
        {
          "name": "topic",
          "type": "string"
        },
        {
          "name": "timestamp",
          "type": "uint32"
        }
      ],
      "payable": false,
      "stateMutability": "view",
      "type": "function"
    },
    {
      "constant": true,
      "inputs": [],
      "name": "owner",
      "outputs": [
        {
          "name": "",
          "type": "address"
        }
      ],
      "payable": false,
      "stateMutability": "view",
      "type": "function"
    },
    {
      "constant": true,
      "inputs": [
        {
          "name": "",
          "type": "bytes32"
        }
      ],
      "name": "courses",
      "outputs": [
        {
          "name": "name",
          "type": "string"
        },
        {
          "name": "cost",
          "type": "uint256"
        },
        {
          "name": "duration",
          "type": "uint256"
        },
        {
          "name": "threshold",
          "type": "uint256"
        }
      ],
      "payable": false,
      "stateMutability": "view",
      "type": "function"
    },
    {
      "inputs": [],
      "payable": false,
      "stateMutability": "nonpayable",
      "type": "constructor"
    },
    {
      "constant": false,
      "inputs": [
        {
          "name": "_code",
          "type": "bytes32"
        },
        {
          "name": "_name",
          "type": "string"
        },
        {
          "name": "_cost",
          "type": "uint256"
        },
        {
          "name": "_duration",
          "type": "uint256"
        },
        {
          "name": "_threshold",
          "type": "uint256"
        },
        {
          "name": "_codes",
          "type": "bytes32[]"
        },
        {
          "name": "_sessions_codes",
          "type": "bytes32[]"
        }
      ],
      "name": "addCourse",
      "outputs": [],
      "payable": false,
      "stateMutability": "nonpayable",
      "type": "function"
    },
    {
      "constant": false,
      "inputs": [
        {
          "name": "_session_code",
          "type": "bytes32"
        },
        {
          "name": "_topic",
          "type": "string"
        },
        {
          "name": "_timestamp",
          "type": "uint32"
        }
      ],
      "name": "addSession",
      "outputs": [],
      "payable": false,
      "stateMutability": "nonpayable",
      "type": "function"
    },
    {
      "constant": true,
      "inputs": [
        {
          "name": "_code",
          "type": "bytes32"
        }
      ],
      "name": "getCourse",
      "outputs": [
        {
          "name": "",
          "type": "string"
        },
        {
          "name": "",
          "type": "uint256"
        },
        {
          "name": "",
          "type": "uint256"
        },
        {
          "name": "",
          "type": "uint256"
        },
        {
          "name": "",
          "type": "bytes32[]"
        },
        {
          "name": "",
          "type": "bytes32[]"
        }
      ],
      "payable": false,
      "stateMutability": "view",
      "type": "function"
    },
    {
      "constant": true,
      "inputs": [
        {
          "name": "_session_code",
          "type": "bytes32"
        }
      ],
      "name": "getSession",
      "outputs": [
        {
          "name": "",
          "type": "string"
        },
        {
          "name": "",
          "type": "uint32"
        }
      ],
      "payable": false,
      "stateMutability": "view",
      "type": "function"
    },
    {
      "constant": false,
      "inputs": [
        {
          "name": "_code",
          "type": "bytes32"
        },
        {
          "name": "_fname",
          "type": "string"
        },
        {
          "name": "_lname",
          "type": "string"
        },
        {
          "name": "_age",
          "type": "uint256"
        },
        {
          "name": "_email",
          "type": "string"
        }
      ],
      "name": "subscribe",
      "outputs": [],
      "payable": true,
      "stateMutability": "payable",
      "type": "function"
    },
    {
      "constant": false,
      "inputs": [
        {
          "name": "_course_code",
          "type": "bytes32"
        },
        {
          "name": "_session_code",
          "type": "bytes32"
        }
      ],
      "name": "addSessionToCourse",
      "outputs": [],
      "payable": false,
      "stateMutability": "nonpayable",
      "type": "function"
    },
    {
      "constant": true,
      "inputs": [
        {
          "name": "_course_code",
          "type": "bytes32"
        }
      ],
      "name": "getCourseSessionsCount",
      "outputs": [
        {
          "name": "",
          "type": "uint256"
        }
      ],
      "payable": false,
      "stateMutability": "view",
      "type": "function"
    }
  ],
  "bytecode": "0x608060405234801561001057600080fd5b50336000806101000a81548173ffffffffffffffffffffffffffffffffffffffff021916908373ffffffffffffffffffffffffffffffffffffffff16021790555061130f806100606000396000f3006080604052600436106100a4576000357c0100000000000000000000000000000000000000000000000000000000900463ffffffff16806339b240bd146100a95780637b75db29146101665780637dbd2832146101ed5780638b41e7ee146102aa5780638da5cb5b146102e957806392f6d0dc14610340578063987b57b91461045b578063b62d8182146105aa578063bd11bc51146105ef578063c4b88751146106ef575b600080fd5b3480156100b557600080fd5b506100d860048036038101908080356000191690602001909291905050506107ae565b60405180806020018363ffffffff1663ffffffff168152602001828103825284818151815260200191508051906020019080838360005b8381101561012a57808201518184015260208101905061010f565b50505050905090810190601f1680156101575780820380516001836020036101000a031916815260200191505b50935050505060405180910390f35b34801561017257600080fd5b506101eb6004803603810190808035600019169060200190929190803590602001908201803590602001908080601f0160208091040260200160405190810160405280939291908181526020018383808284378201915050505050509192919290803563ffffffff1690602001909291905050506108ea565b005b3480156101f957600080fd5b5061021c60048036038101908080356000191690602001909291905050506109c7565b60405180806020018363ffffffff1663ffffffff168152602001828103825284818151815260200191508051906020019080838360005b8381101561026e578082015181840152602081019050610253565b50505050905090810190601f16801561029b5780820380516001836020036101000a031916815260200191505b50935050505060405180910390f35b3480156102b657600080fd5b506102e760048036038101908080356000191690602001909291908035600019169060200190929190505050610a93565b005b3480156102f557600080fd5b506102fe610b46565b604051808273ffffffffffffffffffffffffffffffffffffffff1673ffffffffffffffffffffffffffffffffffffffff16815260200191505060405180910390f35b34801561034c57600080fd5b506104596004803603810190808035600019169060200190929190803590602001908201803590602001908080601f01602080910402602001604051908101604052809392919081815260200183838082843782019150505050505091929192908035906020019092919080359060200190929190803590602001909291908035906020019082018035906020019080806020026020016040519081016040528093929190818152602001838360200280828437820191505050505050919291929080359060200190820180359060200190808060200260200160405190810160405280939291908181526020018383602002808284378201915050505050509192919290505050610b6b565b005b34801561046757600080fd5b5061048a6004803603810190808035600019169060200190929190505050610c90565b6040518080602001878152602001868152602001858152602001806020018060200184810384528a818151815260200191508051906020019080838360005b838110156104e45780820151818401526020810190506104c9565b50505050905090810190601f1680156105115780820380516001836020036101000a031916815260200191505b50848103835286818151815260200191508051906020019060200280838360005b8381101561054d578082015181840152602081019050610532565b50505050905001848103825285818151815260200191508051906020019060200280838360005b8381101561058f578082015181840152602081019050610574565b50505050905001995050505050505050505060405180910390f35b3480156105b657600080fd5b506105d96004803603810190808035600019169060200190929190505050610e8d565b6040518082815260200191505060405180910390f35b6106ed6004803603810190808035600019169060200190929190803590602001908201803590602001908080601f0160208091040260200160405190810160405280939291908181526020018383808284378201915050505050509192919290803590602001908201803590602001908080601f016020809104026020016040519081016040528093929190818152602001838380828437820191505050505050919291929080359060200190929190803590602001908201803590602001908080601f0160208091040260200160405190810160405280939291908181526020018383808284378201915050505050509192919290505050610f18565b005b3480156106fb57600080fd5b5061071e60048036038101908080356000191690602001909291905050506110fe565b6040518080602001858152602001848152602001838152602001828103825286818151815260200191508051906020019080838360005b83811015610770578082015181840152602081019050610755565b50505050905090810190601f16801561079d5780820380516001836020036101000a031916815260200191505b509550505050505060405180910390f35b60606000806000809054906101000a900473ffffffffffffffffffffffffffffffffffffffff1673ffffffffffffffffffffffffffffffffffffffff163373ffffffffffffffffffffffffffffffffffffffff1614151561080e57600080fd5b6002600085600019166000191681526020019081526020016000209050806000018160010160009054906101000a900463ffffffff16818054600181600116156101000203166002900480601f0160208091040260200160405190810160405280929190818152602001828054600181600116156101000203166002900480156108d95780601f106108ae576101008083540402835291602001916108d9565b820191906000526020600020905b8154815290600101906020018083116108bc57829003601f168201915b505050505091509250925050915091565b6000809054906101000a900473ffffffffffffffffffffffffffffffffffffffff1673ffffffffffffffffffffffffffffffffffffffff163373ffffffffffffffffffffffffffffffffffffffff1614151561094557600080fd5b60408051908101604052808381526020018263ffffffff1681525060026000856000191660001916815260200190815260200160002060008201518160000190805190602001906109979291906111c6565b5060208201518160010160006101000a81548163ffffffff021916908363ffffffff160217905550905050505050565b6002602052806000526040600020600091509050806000018054600181600116156101000203166002900480601f016020809104026020016040519081016040528092919081815260200182805460018160011615610100020316600290048015610a735780601f10610a4857610100808354040283529160200191610a73565b820191906000526020600020905b815481529060010190602001808311610a5657829003601f168201915b5050505050908060010160009054906101000a900463ffffffff16905082565b60008060009054906101000a900473ffffffffffffffffffffffffffffffffffffffff1673ffffffffffffffffffffffffffffffffffffffff163373ffffffffffffffffffffffffffffffffffffffff16141515610af057600080fd5b600160008460001916600019168152602001908152602001600020905080600501829080600181540180825580915050906001820390600052602060002001600090919290919091509060001916905550505050565b6000809054906101000a900473ffffffffffffffffffffffffffffffffffffffff1681565b6000809054906101000a900473ffffffffffffffffffffffffffffffffffffffff1673ffffffffffffffffffffffffffffffffffffffff163373ffffffffffffffffffffffffffffffffffffffff16141515610bc657600080fd5b60c060405190810160405280878152602001868152602001858152602001848152602001838152602001828152506001600089600019166000191681526020019081526020016000206000820151816000019080519060200190610c2b9291906111c6565b506020820151816001015560408201518160020155606082015181600301556080820151816004019080519060200190610c66929190611246565b5060a0820151816005019080519060200190610c83929190611246565b5090505050505050505050565b6060600080600060608060008060009054906101000a900473ffffffffffffffffffffffffffffffffffffffff1673ffffffffffffffffffffffffffffffffffffffff163373ffffffffffffffffffffffffffffffffffffffff16141515610cf757600080fd5b6001600089600019166000191681526020019081526020016000209050806000018160010154826002015483600301548460040185600501858054600181600116156101000203166002900480601f016020809104026020016040519081016040528092919081815260200182805460018160011615610100020316600290048015610dc45780601f10610d9957610100808354040283529160200191610dc4565b820191906000526020600020905b815481529060010190602001808311610da757829003601f168201915b5050505050955081805480602002602001604051908101604052809291908181526020018280548015610e1a57602002820191906000526020600020905b81546000191681526020019060010190808311610e02575b5050505050915080805480602002602001604051908101604052809291908181526020018280548015610e7057602002820191906000526020600020905b81546000191681526020019060010190808311610e58575b505050505090509650965096509650965096505091939550919395565b6000806000809054906101000a900473ffffffffffffffffffffffffffffffffffffffff1673ffffffffffffffffffffffffffffffffffffffff163373ffffffffffffffffffffffffffffffffffffffff16141515610eeb57600080fd5b60016000846000191660001916815260200190815260200160002090508060050180549050915050919050565b60006729a2241af62c000034141515610fbf576040517f08c379a00000000000000000000000000000000000000000000000000000000081526004018080602001828103825260218152602001807f596f7520686176656e27742073656e642065786163746c79203320657474686581526020017f720000000000000000000000000000000000000000000000000000000000000081525060400191505060405180910390fd5b600160008760001916600019168152602001908152602001600020905060a06040519081016040528086815260200185815260200184815260200183815260200160006040519080825280602002602001820160405280156110305781602001602082028038833980820191505090505b508152508160060160003373ffffffffffffffffffffffffffffffffffffffff1673ffffffffffffffffffffffffffffffffffffffff16815260200190815260200160002060008201518160000190805190602001906110919291906111c6565b5060208201518160010190805190602001906110ae9291906111c6565b506040820151816002015560608201518160030190805190602001906110d59291906111c6565b5060808201518160040190805190602001906110f2929190611246565b50905050505050505050565b6001602052806000526040600020600091509050806000018054600181600116156101000203166002900480601f0160208091040260200160405190810160405280929190818152602001828054600181600116156101000203166002900480156111aa5780601f1061117f576101008083540402835291602001916111aa565b820191906000526020600020905b81548152906001019060200180831161118d57829003601f168201915b5050505050908060010154908060020154908060030154905084565b828054600181600116156101000203166002900490600052602060002090601f016020900481019282601f1061120757805160ff1916838001178555611235565b82800160010185558215611235579182015b82811115611234578251825591602001919060010190611219565b5b5090506112429190611299565b5090565b828054828255906000526020600020908101928215611288579160200282015b82811115611287578251829060001916905591602001919060010190611266565b5b50905061129591906112be565b5090565b6112bb91905b808211156112b757600081600090555060010161129f565b5090565b90565b6112e091905b808211156112dc5760008160009055506001016112c4565b5090565b905600a165627a7a723058207b5284c748722b7986a1c78a76e8f77a5fe9f97e8b959774476ab2bc74340b210029",
  "source": "pragma solidity ^0.4.23;\n\ncontract Certifier {\n\n    address public owner;\n    mapping(bytes32 => Course) public courses;\n    mapping(bytes32 => Session) public sessions;\n\n    struct Course {\n        string name;\n        uint cost;\n        uint duration;\n        uint threshold;\n        bytes32[] codes;\n        bytes32[] sessions;\n        mapping(address => Student) students;\n    }\n\n    struct Student {\n        string fname;\n        string lname;\n        uint age;\n        string email;\n        bytes32[] codes;\n    }\n\n    struct Session {\n        string topic;\n        uint32 timestamp;\n    }\n    //now returns something like : 1478431966 (which you could convert in a readble form in http://www.unixtimestamp.com/)\n    //https://ethereum.stackexchange.com/questions/9858/solidity-is-there-a-way-to-get-the-timestamp-of-a-transaction-that-executed\n\n    struct Attendance {\n        mapping(address => Student) students;\n\n    }\n\n    function addCourse( bytes32 _code, string _name, uint _cost, uint _duration, uint _threshold, bytes32[] _codes, bytes32[] _sessions_codes) public restricted {\n        courses[_code] = Course({\n            name: _name,\n            cost: _cost,\n            duration: _duration,\n            threshold: _threshold,\n            codes: _codes,\n            sessions: _sessions_codes\n        });\n    }\n\n    function addSession( bytes32 _session_code, string _topic, uint32 _timestamp) public restricted {\n        sessions[_session_code] = Session({\n            topic: _topic,\n            timestamp: _timestamp\n        });\n    }\n\n    function getCourse(bytes32 _code) public restricted view returns (string, uint, uint, uint, bytes32[], bytes32[]){\n        Course storage course = courses[_code];\n        return (course.name, course.cost, course.duration, course.threshold, course.codes, course.sessions);\n    }\n\n    function getSession(bytes32 _session_code) public restricted view returns (string, uint32){\n        Session storage session = sessions[_session_code];\n        return (session.topic, session.timestamp);\n    }\n\n    function subscribe(\n        bytes32 _code,\n        string _fname,\n        string _lname,\n        uint _age,\n        string _email)\n            public payable{\n        require(msg.value == 3 ether, \"You haven't send exactly 3 etther\");\n        Course storage course = courses[_code];\n        course.students[msg.sender] = Student({\n            fname: _fname,\n            lname: _lname,\n            age: _age,\n            email: _email,\n            codes: new bytes32[](0)\n        });\n    }\n\n    function addSessionToCourse( bytes32 _course_code, bytes32 _session_code) public restricted {\n        Course storage course = courses[_course_code];\n        course.sessions.push(_session_code);\n    }\n\n    function getCourseSessionsCount(bytes32 _course_code) public restricted view returns (uint){\n        Course storage course = courses[_course_code];\n        return course.sessions.length;\n    }\n\n    constructor() public {\n        owner = msg.sender;\n    }\n\n    modifier restricted() {\n        require (msg.sender == owner);\n        _;\n    }\n\n}\n\n",
  "sourcePath": "/home/annipi/Documents/Blockchain/Solidity/certifier/contracts/Certifier.sol",
  "compiler": {
    "name": "solc",
    "version": "0.4.24+commit.e67f0147.Emscripten.clang"
  },
  "schemaVersion": "2.0.1",
  "updatedAt": "2018-10-12T15:27:56.526Z"
}