{
  "contractName": "Certifier",
  "abi": [
    {
      "constant": true,
      "inputs": [
        {
          "name": "",
          "type": "bytes32"
        }
      ],
      "name": "sessions",
      "outputs": [
        {
          "name": "topic",
          "type": "string"
        },
        {
          "name": "timestamp",
          "type": "uint32"
        }
      ],
      "payable": false,
      "stateMutability": "view",
      "type": "function"
    },
    {
      "constant": true,
      "inputs": [],
      "name": "owner",
      "outputs": [
        {
          "name": "",
          "type": "address"
        }
      ],
      "payable": false,
      "stateMutability": "view",
      "type": "function"
    },
    {
      "constant": true,
      "inputs": [
        {
          "name": "",
          "type": "bytes32"
        }
      ],
      "name": "courses",
      "outputs": [
        {
          "name": "name",
          "type": "string"
        },
        {
          "name": "cost",
          "type": "uint256"
        },
        {
          "name": "duration",
          "type": "uint256"
        },
        {
          "name": "threshold",
          "type": "uint256"
        }
      ],
      "payable": false,
      "stateMutability": "view",
      "type": "function"
    },
    {
      "inputs": [],
      "payable": false,
      "stateMutability": "nonpayable",
      "type": "constructor"
    },
    {
      "constant": false,
      "inputs": [
        {
          "name": "_code",
          "type": "bytes32"
        },
        {
          "name": "_name",
          "type": "string"
        },
        {
          "name": "_cost",
          "type": "uint256"
        },
        {
          "name": "_duration",
          "type": "uint256"
        },
        {
          "name": "_threshold",
          "type": "uint256"
        },
        {
          "name": "_codes",
          "type": "bytes32[]"
        }
      ],
      "name": "addCourse",
      "outputs": [],
      "payable": false,
      "stateMutability": "nonpayable",
      "type": "function"
    },
    {
      "constant": false,
      "inputs": [
        {
          "name": "_session_code",
          "type": "bytes32"
        },
        {
          "name": "_topic",
          "type": "string"
        },
        {
          "name": "_timestamp",
          "type": "uint32"
        }
      ],
      "name": "addSession",
      "outputs": [],
      "payable": false,
      "stateMutability": "nonpayable",
      "type": "function"
    },
    {
      "constant": true,
      "inputs": [
        {
          "name": "_code",
          "type": "bytes32"
        }
      ],
      "name": "getCourse",
      "outputs": [
        {
          "name": "",
          "type": "string"
        },
        {
          "name": "",
          "type": "uint256"
        },
        {
          "name": "",
          "type": "uint256"
        },
        {
          "name": "",
          "type": "uint256"
        },
        {
          "name": "",
          "type": "bytes32[]"
        }
      ],
      "payable": false,
      "stateMutability": "view",
      "type": "function"
    },
    {
      "constant": true,
      "inputs": [
        {
          "name": "_session_code",
          "type": "bytes32"
        }
      ],
      "name": "getSession",
      "outputs": [
        {
          "name": "",
          "type": "string"
        },
        {
          "name": "",
          "type": "uint32"
        }
      ],
      "payable": false,
      "stateMutability": "view",
      "type": "function"
    },
    {
      "constant": false,
      "inputs": [
        {
          "name": "_code",
          "type": "bytes32"
        },
        {
          "name": "_fname",
          "type": "string"
        },
        {
          "name": "_lname",
          "type": "string"
        },
        {
          "name": "_age",
          "type": "uint256"
        },
        {
          "name": "_email",
          "type": "string"
        }
      ],
      "name": "subscribe",
      "outputs": [],
      "payable": true,
      "stateMutability": "payable",
      "type": "function"
    },
    {
      "constant": true,
      "inputs": [],
      "name": "isOwner",
      "outputs": [
        {
          "name": "",
          "type": "bool"
        }
      ],
      "payable": false,
      "stateMutability": "view",
      "type": "function"
    }
  ],
  "bytecode": "0x608060405234801561001057600080fd5b50336000806101000a81548173ffffffffffffffffffffffffffffffffffffffff021916908373ffffffffffffffffffffffffffffffffffffffff1602179055506110bc806100606000396000f300608060405260043610610099576000357c0100000000000000000000000000000000000000000000000000000000900463ffffffff16806339b240bd1461009e5780637b75db291461015b5780637dbd2832146101e25780638da5cb5b1461029f5780638f32d59b146102f6578063987b57b914610325578063bd11bc511461042c578063c4b887511461052c578063fdf8aad3146105eb575b600080fd5b3480156100aa57600080fd5b506100cd60048036038101908080356000191690602001909291905050506106c3565b60405180806020018363ffffffff1663ffffffff168152602001828103825284818151815260200191508051906020019080838360005b8381101561011f578082015181840152602081019050610104565b50505050905090810190601f16801561014c5780820380516001836020036101000a031916815260200191505b50935050505060405180910390f35b34801561016757600080fd5b506101e06004803603810190808035600019169060200190929190803590602001908201803590602001908080601f0160208091040260200160405190810160405280939291908181526020018383808284378201915050505050509192919290803563ffffffff1690602001909291905050506107ff565b005b3480156101ee57600080fd5b5061021160048036038101908080356000191690602001909291905050506108dc565b60405180806020018363ffffffff1663ffffffff168152602001828103825284818151815260200191508051906020019080838360005b83811015610263578082015181840152602081019050610248565b50505050905090810190601f1680156102905780820380516001836020036101000a031916815260200191505b50935050505060405180910390f35b3480156102ab57600080fd5b506102b46109a8565b604051808273ffffffffffffffffffffffffffffffffffffffff1673ffffffffffffffffffffffffffffffffffffffff16815260200191505060405180910390f35b34801561030257600080fd5b5061030b6109cd565b604051808215151515815260200191505060405180910390f35b34801561033157600080fd5b506103546004803603810190808035600019169060200190929190505050610a24565b604051808060200186815260200185815260200184815260200180602001838103835288818151815260200191508051906020019080838360005b838110156103aa57808201518184015260208101905061038f565b50505050905090810190601f1680156103d75780820380516001836020036101000a031916815260200191505b50838103825284818151815260200191508051906020019060200280838360005b838110156104135780820151818401526020810190506103f8565b5050505090500197505050505050505060405180910390f35b61052a6004803603810190808035600019169060200190929190803590602001908201803590602001908080601f0160208091040260200160405190810160405280939291908181526020018383808284378201915050505050509192919290803590602001908201803590602001908080601f016020809104026020016040519081016040528093929190818152602001838380828437820191505050505050919291929080359060200190929190803590602001908201803590602001908080601f0160208091040260200160405190810160405280939291908181526020018383808284378201915050505050509192919290505050610bc4565b005b34801561053857600080fd5b5061055b6004803603810190808035600019169060200190929190505050610daa565b6040518080602001858152602001848152602001838152602001828103825286818151815260200191508051906020019080838360005b838110156105ad578082015181840152602081019050610592565b50505050905090810190601f1680156105da5780820380516001836020036101000a031916815260200191505b509550505050505060405180910390f35b3480156105f757600080fd5b506106c16004803603810190808035600019169060200190929190803590602001908201803590602001908080601f016020809104026020016040519081016040528093929190818152602001838380828437820191505050505050919291929080359060200190929190803590602001909291908035906020019092919080359060200190820180359060200190808060200260200160405190810160405280939291908181526020018383602002808284378201915050505050509192919290505050610e72565b005b60606000806000809054906101000a900473ffffffffffffffffffffffffffffffffffffffff1673ffffffffffffffffffffffffffffffffffffffff163373ffffffffffffffffffffffffffffffffffffffff1614151561072357600080fd5b6002600085600019166000191681526020019081526020016000209050806000018160010160009054906101000a900463ffffffff16818054600181600116156101000203166002900480601f0160208091040260200160405190810160405280929190818152602001828054600181600116156101000203166002900480156107ee5780601f106107c3576101008083540402835291602001916107ee565b820191906000526020600020905b8154815290600101906020018083116107d157829003601f168201915b505050505091509250925050915091565b6000809054906101000a900473ffffffffffffffffffffffffffffffffffffffff1673ffffffffffffffffffffffffffffffffffffffff163373ffffffffffffffffffffffffffffffffffffffff1614151561085a57600080fd5b60408051908101604052808381526020018263ffffffff1681525060026000856000191660001916815260200190815260200160002060008201518160000190805190602001906108ac929190610f73565b5060208201518160010160006101000a81548163ffffffff021916908363ffffffff160217905550905050505050565b6002602052806000526040600020600091509050806000018054600181600116156101000203166002900480601f0160208091040260200160405190810160405280929190818152602001828054600181600116156101000203166002900480156109885780601f1061095d57610100808354040283529160200191610988565b820191906000526020600020905b81548152906001019060200180831161096b57829003601f168201915b5050505050908060010160009054906101000a900463ffffffff16905082565b6000809054906101000a900473ffffffffffffffffffffffffffffffffffffffff1681565b60008060009054906101000a900473ffffffffffffffffffffffffffffffffffffffff1673ffffffffffffffffffffffffffffffffffffffff163373ffffffffffffffffffffffffffffffffffffffff1614905090565b60606000806000606060008060009054906101000a900473ffffffffffffffffffffffffffffffffffffffff1673ffffffffffffffffffffffffffffffffffffffff163373ffffffffffffffffffffffffffffffffffffffff16141515610a8a57600080fd5b60016000886000191660001916815260200190815260200160002090508060000181600101548260020154836003015484600401848054600181600116156101000203166002900480601f016020809104026020016040519081016040528092919081815260200182805460018160011615610100020316600290048015610b535780601f10610b2857610100808354040283529160200191610b53565b820191906000526020600020905b815481529060010190602001808311610b3657829003601f168201915b5050505050945080805480602002602001604051908101604052809291908181526020018280548015610ba957602002820191906000526020600020905b81546000191681526020019060010190808311610b91575b50505050509050955095509550955095505091939590929450565b60006729a2241af62c000034141515610c6b576040517f08c379a00000000000000000000000000000000000000000000000000000000081526004018080602001828103825260218152602001807f596f7520686176656e27742073656e642065786163746c79203320657474686581526020017f720000000000000000000000000000000000000000000000000000000000000081525060400191505060405180910390fd5b600160008760001916600019168152602001908152602001600020905060a0604051908101604052808681526020018581526020018481526020018381526020016000604051908082528060200260200182016040528015610cdc5781602001602082028038833980820191505090505b508152508160050160003373ffffffffffffffffffffffffffffffffffffffff1673ffffffffffffffffffffffffffffffffffffffff1681526020019081526020016000206000820151816000019080519060200190610d3d929190610f73565b506020820151816001019080519060200190610d5a929190610f73565b50604082015181600201556060820151816003019080519060200190610d81929190610f73565b506080820151816004019080519060200190610d9e929190610ff3565b50905050505050505050565b6001602052806000526040600020600091509050806000018054600181600116156101000203166002900480601f016020809104026020016040519081016040528092919081815260200182805460018160011615610100020316600290048015610e565780601f10610e2b57610100808354040283529160200191610e56565b820191906000526020600020905b815481529060010190602001808311610e3957829003601f168201915b5050505050908060010154908060020154908060030154905084565b6000809054906101000a900473ffffffffffffffffffffffffffffffffffffffff1673ffffffffffffffffffffffffffffffffffffffff163373ffffffffffffffffffffffffffffffffffffffff16141515610ecd57600080fd5b60a060405190810160405280868152602001858152602001848152602001838152602001828152506001600088600019166000191681526020019081526020016000206000820151816000019080519060200190610f2c929190610f73565b506020820151816001015560408201518160020155606082015181600301556080820151816004019080519060200190610f67929190610ff3565b50905050505050505050565b828054600181600116156101000203166002900490600052602060002090601f016020900481019282601f10610fb457805160ff1916838001178555610fe2565b82800160010185558215610fe2579182015b82811115610fe1578251825591602001919060010190610fc6565b5b509050610fef9190611046565b5090565b828054828255906000526020600020908101928215611035579160200282015b82811115611034578251829060001916905591602001919060010190611013565b5b509050611042919061106b565b5090565b61106891905b8082111561106457600081600090555060010161104c565b5090565b90565b61108d91905b80821115611089576000816000905550600101611071565b5090565b905600a165627a7a723058200129db7e20671e2b3300abcf116114d5fe475fc6887e462809309361386eed900029",
  "source": "pragma solidity ^0.4.23;\n\ncontract Certifier {\n\n    address public owner;\n    mapping(bytes32 => Course) public courses;\n    mapping(bytes32 => Session) public sessions;\n\n    struct Course {\n        string name;\n        uint cost;\n        uint duration;\n        uint threshold;\n        bytes32[] codes;\n        //bytes32[] sessions;\n        mapping(address => Student) students;\n    }\n\n    struct Student {\n        string fname;\n        string lname;\n        uint age;\n        string email;\n        bytes32[] codes;\n    }\n\n    struct Session {\n        string topic;\n        uint32 timestamp;\n    }\n    //now returns something like : 1478431966 (which you could convert in a readble form in http://www.unixtimestamp.com/)\n    //https://ethereum.stackexchange.com/questions/9858/solidity-is-there-a-way-to-get-the-timestamp-of-a-transaction-that-executed\n\n    //TODO attendance how we are going to that shit?\n    struct Attendance {\n        mapping(address => Student) students;\n\n    }\n\n    function addCourse( bytes32 _code, string _name, uint _cost, uint _duration, uint _threshold, bytes32[] _codes)//, bytes32[] _sessions_codes)\n    public restricted {\n        courses[_code] = Course({\n            name: _name,\n            cost: _cost,\n            duration: _duration,\n            threshold: _threshold,\n            codes: _codes\n            //,\n            //sessions: _sessions_codes\n        });\n    }\n\n    function addSession( bytes32 _session_code, string _topic, uint32 _timestamp) public restricted {\n        sessions[_session_code] = Session({\n            topic: _topic,\n            timestamp: _timestamp\n        });\n    }\n\n    function getCourse(bytes32 _code) public restricted view returns (string, uint, uint, uint, bytes32[]){ //, bytes32[]){\n        Course storage course = courses[_code];\n        return (course.name, course.cost, course.duration, course.threshold, course.codes); //, course.sessions);\n    }\n\n    function getSession(bytes32 _session_code) public restricted view returns (string, uint32){\n        Session storage session = sessions[_session_code];\n        return (session.topic, session.timestamp);\n    }\n\n    function subscribe(\n        bytes32 _code,\n        string _fname,\n        string _lname,\n        uint _age,\n        string _email)\n            public payable{\n        require(msg.value == 3 ether, \"You haven't send exactly 3 etther\");\n        Course storage course = courses[_code];\n        course.students[msg.sender] = Student({\n            fname: _fname,\n            lname: _lname,\n            age: _age,\n            email: _email,\n            codes: new bytes32[](0)\n        });\n    }\n\n//    function addSessionToCourse( bytes32 _course_code, bytes32 _session_code) public restricted {\n//        Course storage course = courses[_course_code];\n//        course.sessions.push(_session_code);\n//    }\n\n    //TODO end this shit\n//    function getCourseSessionsCount(bytes32 _course_code) public restricted view returns (uint){\n//        Course storage course = courses[_course_code];\n//        return course.sessions.length.toFixed();\n//    }\n\n    //view -> solo para ver la blookchain y no modificarla\n    function isOwner() public view returns (bool) {\n        return msg.sender == owner;\n    }\n\n    constructor() public {\n        owner = msg.sender;\n    }\n\n    modifier restricted() {\n        require (msg.sender == owner);\n        _;\n    }\n\n}\n\n",
  "sourcePath": "/home/annipi/Documents/Blockchain/Solidity/certifier/contracts/Certifier.sol",
  "compiler": {
    "name": "solc",
    "version": "0.4.24+commit.e67f0147.Emscripten.clang"
  },
  "schemaVersion": "2.0.1",
  "updatedAt": "2018-10-13T16:47:42.896Z"
}